{
  "_format": "hh-sol-artifact-1",
  "contractName": "SimpleTransfer",
  "sourceName": "contracts/SimpleTransfer.sol",
  "abi": [
    {
      "inputs": [
        {
          "internalType": "address",
          "name": "token",
          "type": "address"
        }
      ],
      "name": "SafeERC20FailedOperation",
      "type": "error"
    },
    {
      "anonymous": false,
      "inputs": [
        {
          "indexed": false,
          "internalType": "uint256",
          "name": "time",
          "type": "uint256"
        },
        {
          "indexed": false,
          "internalType": "address",
          "name": "from",
          "type": "address"
        },
        {
          "indexed": false,
          "internalType": "address",
          "name": "to",
          "type": "address"
        },
        {
          "indexed": false,
          "internalType": "address",
          "name": "erc20",
          "type": "address"
        },
        {
          "indexed": false,
          "internalType": "uint256",
          "name": "amount",
          "type": "uint256"
        },
        {
          "indexed": false,
          "internalType": "uint256",
          "name": "fee",
          "type": "uint256"
        }
      ],
      "name": "TransferEvent",
      "type": "event"
    },
    {
      "inputs": [
        {
          "internalType": "address",
          "name": "to",
          "type": "address"
        },
        {
          "internalType": "contract IERC20",
          "name": "erc20",
          "type": "address"
        },
        {
          "internalType": "uint256",
          "name": "amount",
          "type": "uint256"
        }
      ],
      "name": "transfer",
      "outputs": [],
      "stateMutability": "nonpayable",
      "type": "function"
    }
  ],
  "bytecode": "0x6080604052348015600f57600080fd5b506104478061001f6000396000f3fe608060405234801561001057600080fd5b506004361061002b5760003560e01c8063beabacc814610030575b600080fd5b61004a600480360381019061004591906102b6565b61004c565b005b61007783828473ffffffffffffffffffffffffffffffffffffffff166100be9092919063ffffffff16565b7f5a4d3a22398798c9cfb50583adfc190c4bcd8cbe54f172d82afb301b92fab49c423385858560006040516100b19695949392919061036c565b60405180910390a1505050565b610138838473ffffffffffffffffffffffffffffffffffffffff1663a9059cbb85856040516024016100f19291906103cd565b604051602081830303815290604052915060e01b6020820180517bffffffffffffffffffffffffffffffffffffffffffffffffffffffff838183161783525050505061013d565b505050565b600080602060008451602086016000885af180610160576040513d6000823e3d81fd5b3d92506000519150506000821461017b576001811415610197565b60008473ffffffffffffffffffffffffffffffffffffffff163b145b156101d957836040517f5274afe70000000000000000000000000000000000000000000000000000000081526004016101d091906103f6565b60405180910390fd5b50505050565b600080fd5b600073ffffffffffffffffffffffffffffffffffffffff82169050919050565b600061020f826101e4565b9050919050565b61021f81610204565b811461022a57600080fd5b50565b60008135905061023c81610216565b92915050565b600061024d82610204565b9050919050565b61025d81610242565b811461026857600080fd5b50565b60008135905061027a81610254565b92915050565b6000819050919050565b61029381610280565b811461029e57600080fd5b50565b6000813590506102b08161028a565b92915050565b6000806000606084860312156102cf576102ce6101df565b5b60006102dd8682870161022d565b93505060206102ee8682870161026b565b92505060406102ff868287016102a1565b9150509250925092565b61031281610280565b82525050565b61032181610204565b82525050565b6000819050919050565b6000819050919050565b600061035661035161034c84610327565b610331565b610280565b9050919050565b6103668161033b565b82525050565b600060c0820190506103816000830189610309565b61038e6020830188610318565b61039b6040830187610318565b6103a86060830186610318565b6103b56080830185610309565b6103c260a083018461035d565b979650505050505050565b60006040820190506103e26000830185610318565b6103ef6020830184610309565b9392505050565b600060208201905061040b6000830184610318565b9291505056fea26469706673582212205a92ec40e445fc0fdb5a54970ae872a97c2bdfd1af3e7959ecc7156b63c86ac464736f6c634300081c0033",
  "linkReferences": {},
  "deployedLinkReferences": {}
}