{
  "_format": "hh-sol-artifact-1",
  "contractName": "TokenTransfer",
  "sourceName": "contracts/TokenTransfer.sol",
  "abi": [
    {
      "inputs": [
        {
          "internalType": "address",
          "name": "initialOwner",
          "type": "address"
        },
        {
          "internalType": "contract FeeMaster",
          "name": "feeMaster",
          "type": "address"
        }
      ],
      "stateMutability": "nonpayable",
      "type": "constructor"
    },
    {
      "inputs": [],
      "name": "AllowanceRequire",
      "type": "error"
    },
    {
      "inputs": [],
      "name": "AmountIncorrect",
      "type": "error"
    },
    {
      "inputs": [
        {
          "internalType": "string",
          "name": "txCode",
          "type": "string"
        }
      ],
      "name": "FeeUnpaid",
      "type": "error"
    },
    {
      "inputs": [],
      "name": "IncorrectReceiveAddress",
      "type": "error"
    },
    {
      "inputs": [],
      "name": "InvalidFeeMasterAddress",
      "type": "error"
    },
    {
      "inputs": [],
      "name": "OutOfBalance",
      "type": "error"
    },
    {
      "inputs": [
        {
          "internalType": "address",
          "name": "owner",
          "type": "address"
        }
      ],
      "name": "OwnableInvalidOwner",
      "type": "error"
    },
    {
      "inputs": [
        {
          "internalType": "address",
          "name": "account",
          "type": "address"
        }
      ],
      "name": "OwnableUnauthorizedAccount",
      "type": "error"
    },
    {
      "inputs": [
        {
          "internalType": "address",
          "name": "token",
          "type": "address"
        }
      ],
      "name": "SafeERC20FailedOperation",
      "type": "error"
    },
    {
      "anonymous": false,
      "inputs": [
        {
          "indexed": true,
          "internalType": "string",
          "name": "txCode",
          "type": "string"
        },
        {
          "indexed": false,
          "internalType": "uint256",
          "name": "time",
          "type": "uint256"
        },
        {
          "indexed": false,
          "internalType": "address",
          "name": "from",
          "type": "address"
        },
        {
          "indexed": false,
          "internalType": "address",
          "name": "to",
          "type": "address"
        },
        {
          "indexed": false,
          "internalType": "address",
          "name": "erc20",
          "type": "address"
        },
        {
          "indexed": false,
          "internalType": "uint256",
          "name": "amount",
          "type": "uint256"
        }
      ],
      "name": "FeeCollected",
      "type": "event"
    },
    {
      "anonymous": false,
      "inputs": [
        {
          "indexed": true,
          "internalType": "address",
          "name": "previousOwner",
          "type": "address"
        },
        {
          "indexed": true,
          "internalType": "address",
          "name": "newOwner",
          "type": "address"
        }
      ],
      "name": "OwnershipTransferred",
      "type": "event"
    },
    {
      "anonymous": false,
      "inputs": [
        {
          "indexed": false,
          "internalType": "uint256",
          "name": "time",
          "type": "uint256"
        },
        {
          "indexed": false,
          "internalType": "address",
          "name": "from",
          "type": "address"
        },
        {
          "indexed": false,
          "internalType": "address",
          "name": "to",
          "type": "address"
        },
        {
          "indexed": false,
          "internalType": "address",
          "name": "erc20Address",
          "type": "address"
        },
        {
          "indexed": false,
          "internalType": "uint256",
          "name": "amount",
          "type": "uint256"
        }
      ],
      "name": "TokenReceived",
      "type": "event"
    },
    {
      "anonymous": false,
      "inputs": [
        {
          "indexed": false,
          "internalType": "uint256",
          "name": "time",
          "type": "uint256"
        },
        {
          "indexed": false,
          "internalType": "address",
          "name": "from",
          "type": "address"
        },
        {
          "indexed": false,
          "internalType": "address",
          "name": "to",
          "type": "address"
        },
        {
          "indexed": false,
          "internalType": "address",
          "name": "erc20Address",
          "type": "address"
        },
        {
          "indexed": false,
          "internalType": "uint256",
          "name": "amount",
          "type": "uint256"
        }
      ],
      "name": "TokenTransfer",
      "type": "event"
    },
    {
      "anonymous": false,
      "inputs": [
        {
          "indexed": true,
          "internalType": "string",
          "name": "txCode",
          "type": "string"
        },
        {
          "indexed": false,
          "internalType": "uint256",
          "name": "time",
          "type": "uint256"
        },
        {
          "indexed": false,
          "internalType": "address",
          "name": "from",
          "type": "address"
        },
        {
          "indexed": false,
          "internalType": "address",
          "name": "to",
          "type": "address"
        },
        {
          "indexed": false,
          "internalType": "address",
          "name": "erc20",
          "type": "address"
        },
        {
          "indexed": false,
          "internalType": "uint256",
          "name": "amount",
          "type": "uint256"
        }
      ],
      "name": "TransferEvent",
      "type": "event"
    },
    {
      "inputs": [],
      "name": "owner",
      "outputs": [
        {
          "internalType": "address",
          "name": "",
          "type": "address"
        }
      ],
      "stateMutability": "view",
      "type": "function"
    },
    {
      "inputs": [
        {
          "internalType": "string",
          "name": "txCode",
          "type": "string"
        },
        {
          "internalType": "contract IERC20",
          "name": "erc20",
          "type": "address"
        },
        {
          "internalType": "uint256",
          "name": "amount",
          "type": "uint256"
        }
      ],
      "name": "payFee",
      "outputs": [],
      "stateMutability": "nonpayable",
      "type": "function"
    },
    {
      "inputs": [],
      "name": "renounceOwnership",
      "outputs": [],
      "stateMutability": "nonpayable",
      "type": "function"
    },
    {
      "inputs": [
        {
          "internalType": "contract FeeMaster",
          "name": "feeMaster",
          "type": "address"
        }
      ],
      "name": "setFeeMaster",
      "outputs": [],
      "stateMutability": "nonpayable",
      "type": "function"
    },
    {
      "inputs": [
        {
          "internalType": "string",
          "name": "txCode",
          "type": "string"
        },
        {
          "internalType": "address",
          "name": "to",
          "type": "address"
        },
        {
          "internalType": "contract IERC20",
          "name": "erc20",
          "type": "address"
        },
        {
          "internalType": "uint256",
          "name": "amount",
          "type": "uint256"
        }
      ],
      "name": "transfer",
      "outputs": [],
      "stateMutability": "nonpayable",
      "type": "function"
    },
    {
      "inputs": [
        {
          "internalType": "address",
          "name": "newOwner",
          "type": "address"
        }
      ],
      "name": "transferOwnership",
      "outputs": [],
      "stateMutability": "nonpayable",
      "type": "function"
    }
  ],
  "bytecode": "0x608060405234801561001057600080fd5b50604051611525380380611525833981810160405281019061003291906102dc565b8082600073ffffffffffffffffffffffffffffffffffffffff168173ffffffffffffffffffffffffffffffffffffffff16036100a65760006040517f1e4fbdf700000000000000000000000000000000000000000000000000000000815260040161009d919061032b565b60405180910390fd5b6100b5816100cd60201b60201c565b506100c58161019160201b60201c565b505050610346565b60008060009054906101000a900473ffffffffffffffffffffffffffffffffffffffff169050816000806101000a81548173ffffffffffffffffffffffffffffffffffffffff021916908373ffffffffffffffffffffffffffffffffffffffff1602179055508173ffffffffffffffffffffffffffffffffffffffff168173ffffffffffffffffffffffffffffffffffffffff167f8be0079c531659141344cd1fd0a4f28419497f9722a3daafe3b4186f6b6457e060405160405180910390a35050565b600073ffffffffffffffffffffffffffffffffffffffff168173ffffffffffffffffffffffffffffffffffffffff16036101f7576040517fa5b5e86f00000000000000000000000000000000000000000000000000000000815260040160405180910390fd5b80600160006101000a81548173ffffffffffffffffffffffffffffffffffffffff021916908373ffffffffffffffffffffffffffffffffffffffff16021790555050565b600080fd5b600073ffffffffffffffffffffffffffffffffffffffff82169050919050565b600061026b82610240565b9050919050565b61027b81610260565b811461028657600080fd5b50565b60008151905061029881610272565b92915050565b60006102a982610260565b9050919050565b6102b98161029e565b81146102c457600080fd5b50565b6000815190506102d6816102b0565b92915050565b600080604083850312156102f3576102f261023b565b5b600061030185828601610289565b9250506020610312858286016102c7565b9150509250929050565b61032581610260565b82525050565b6000602082019050610340600083018461031c565b92915050565b6111d0806103556000396000f3fe608060405234801561001057600080fd5b50600436106100625760003560e01c806326eaf212146100675780632952438e14610083578063715018a61461009f5780638da5cb5b146100a9578063d610cd53146100c7578063f2fde38b146100e3575b600080fd5b610081600480360381019061007c9190610c9b565b6100ff565b005b61009d60048036038101906100989190610d3b565b6102ae565b005b6100a761049a565b005b6100b16104ae565b6040516100be9190610dd2565b60405180910390f35b6100e160048036038101906100dc9190610e2b565b6104d7565b005b6100fd60048036038101906100f89190610e58565b6104eb565b005b818161010b8282610571565b85858585600160009054906101000a900473ffffffffffffffffffffffffffffffffffffffff1673ffffffffffffffffffffffffffffffffffffffff1663d867dd1c858585856040518563ffffffff1660e01b81526004016101709493929190610f51565b600060405180830381600087803b15801561018a57600080fd5b505af115801561019e573d6000803e3d6000fd5b505050506101b5336101ae610630565b8a8a6106c8565b600160009054906101000a900473ffffffffffffffffffffffffffffffffffffffff1673ffffffffffffffffffffffffffffffffffffffff1663a5bc17f585856040518363ffffffff1660e01b8152600401610212929190610f91565b600060405180830381600087803b15801561022c57600080fd5b505af1158015610240573d6000803e3d6000fd5b505050508383604051610254929190610fe5565b60405180910390207f508340830815c7e82074fea9cee8233af96952b4ec5db0c0958c9a34c3f39d0b4233610287610630565b868660405161029a959493929190610ffe565b60405180910390a250505050505050505050565b81816102ba8282610571565b8686600160009054906101000a900473ffffffffffffffffffffffffffffffffffffffff1673ffffffffffffffffffffffffffffffffffffffff16635b0a4e9283836040518363ffffffff1660e01b8152600401610319929190610f91565b602060405180830381865afa158015610336573d6000803e3d6000fd5b505050506040513d601f19601f8201168201806040525081019061035a9190611089565b61039d5781816040517f4e66d743000000000000000000000000000000000000000000000000000000008152600401610394929190610f91565b60405180910390fd5b6103a9338888886106c8565b88886040516103b9929190610fe5565b60405180910390207f588dffe76b161b30f12deac9c578ec1769100b06827613355a472432a99bed1942338a8a8a6040516103f8959493929190610ffe565b60405180910390a2600160009054906101000a900473ffffffffffffffffffffffffffffffffffffffff1673ffffffffffffffffffffffffffffffffffffffff16633733f53e83836040518363ffffffff1660e01b815260040161045d929190610f91565b600060405180830381600087803b15801561047757600080fd5b505af115801561048b573d6000803e3d6000fd5b50505050505050505050505050565b6104a2610865565b6104ac60006108ec565b565b60008060009054906101000a900473ffffffffffffffffffffffffffffffffffffffff16905090565b6104df610865565b6104e8816109b0565b50565b6104f3610865565b600073ffffffffffffffffffffffffffffffffffffffff168173ffffffffffffffffffffffffffffffffffffffff16036105655760006040517f1e4fbdf700000000000000000000000000000000000000000000000000000000815260040161055c9190610dd2565b60405180910390fd5b61056e816108ec565b50565b60008273ffffffffffffffffffffffffffffffffffffffff1663dd62ed3e33306040518363ffffffff1660e01b81526004016105ae9291906110b6565b602060405180830381865afa1580156105cb573d6000803e3d6000fd5b505050506040513d601f19601f820116820180604052508101906105ef91906110f4565b90508181101561062b576040517ffcc5256e00000000000000000000000000000000000000000000000000000000815260040160405180910390fd5b505050565b6000600160009054906101000a900473ffffffffffffffffffffffffffffffffffffffff1673ffffffffffffffffffffffffffffffffffffffff1663e8a353926040518163ffffffff1660e01b8152600401602060405180830381865afa15801561069f573d6000803e3d6000fd5b505050506040513d601f19601f820116820180604052508101906106c39190611136565b905090565b83838383808273ffffffffffffffffffffffffffffffffffffffff166370a08231866040518263ffffffff1660e01b81526004016107069190610dd2565b602060405180830381865afa158015610723573d6000803e3d6000fd5b505050506040513d601f19601f8201168201806040525081019061074791906110f4565b101561077f576040517fe48da08800000000000000000000000000000000000000000000000000000000815260040160405180910390fd5b600073ffffffffffffffffffffffffffffffffffffffff168373ffffffffffffffffffffffffffffffffffffffff16036107e5576040517fd6cd477300000000000000000000000000000000000000000000000000000000815260040160405180910390fd5b600085111561081c5761081b8888878973ffffffffffffffffffffffffffffffffffffffff16610a5a909392919063ffffffff16565b5b7f94805c331332e141198757f944dacafe5617bc22662bed67d4a252417312b7924285858585604051610853959493929190610ffe565b60405180910390a15050505050505050565b61086d610adc565b73ffffffffffffffffffffffffffffffffffffffff1661088b6104ae565b73ffffffffffffffffffffffffffffffffffffffff16146108ea576108ae610adc565b6040517f118cdaa70000000000000000000000000000000000000000000000000000000081526004016108e19190610dd2565b60405180910390fd5b565b60008060009054906101000a900473ffffffffffffffffffffffffffffffffffffffff169050816000806101000a81548173ffffffffffffffffffffffffffffffffffffffff021916908373ffffffffffffffffffffffffffffffffffffffff1602179055508173ffffffffffffffffffffffffffffffffffffffff168173ffffffffffffffffffffffffffffffffffffffff167f8be0079c531659141344cd1fd0a4f28419497f9722a3daafe3b4186f6b6457e060405160405180910390a35050565b600073ffffffffffffffffffffffffffffffffffffffff168173ffffffffffffffffffffffffffffffffffffffff1603610a16576040517fa5b5e86f00000000000000000000000000000000000000000000000000000000815260040160405180910390fd5b80600160006101000a81548173ffffffffffffffffffffffffffffffffffffffff021916908373ffffffffffffffffffffffffffffffffffffffff16021790555050565b610ad6848573ffffffffffffffffffffffffffffffffffffffff166323b872dd868686604051602401610a8f93929190611163565b604051602081830303815290604052915060e01b6020820180517bffffffffffffffffffffffffffffffffffffffffffffffffffffffff8381831617835250505050610ae4565b50505050565b600033905090565b600080602060008451602086016000885af180610b07576040513d6000823e3d81fd5b3d925060005191505060008214610b22576001811415610b3e565b60008473ffffffffffffffffffffffffffffffffffffffff163b145b15610b8057836040517f5274afe7000000000000000000000000000000000000000000000000000000008152600401610b779190610dd2565b60405180910390fd5b50505050565b600080fd5b600080fd5b600080fd5b600080fd5b600080fd5b60008083601f840112610bb557610bb4610b90565b5b8235905067ffffffffffffffff811115610bd257610bd1610b95565b5b602083019150836001820283011115610bee57610bed610b9a565b5b9250929050565b600073ffffffffffffffffffffffffffffffffffffffff82169050919050565b6000610c2082610bf5565b9050919050565b6000610c3282610c15565b9050919050565b610c4281610c27565b8114610c4d57600080fd5b50565b600081359050610c5f81610c39565b92915050565b6000819050919050565b610c7881610c65565b8114610c8357600080fd5b50565b600081359050610c9581610c6f565b92915050565b60008060008060608587031215610cb557610cb4610b86565b5b600085013567ffffffffffffffff811115610cd357610cd2610b8b565b5b610cdf87828801610b9f565b94509450506020610cf287828801610c50565b9250506040610d0387828801610c86565b91505092959194509250565b610d1881610c15565b8114610d2357600080fd5b50565b600081359050610d3581610d0f565b92915050565b600080600080600060808688031215610d5757610d56610b86565b5b600086013567ffffffffffffffff811115610d7557610d74610b8b565b5b610d8188828901610b9f565b95509550506020610d9488828901610d26565b9350506040610da588828901610c50565b9250506060610db688828901610c86565b9150509295509295909350565b610dcc81610c15565b82525050565b6000602082019050610de76000830184610dc3565b92915050565b6000610df882610c15565b9050919050565b610e0881610ded565b8114610e1357600080fd5b50565b600081359050610e2581610dff565b92915050565b600060208284031215610e4157610e40610b86565b5b6000610e4f84828501610e16565b91505092915050565b600060208284031215610e6e57610e6d610b86565b5b6000610e7c84828501610d26565b91505092915050565b600082825260208201905092915050565b82818337600083830152505050565b6000601f19601f8301169050919050565b6000610ec28385610e85565b9350610ecf838584610e96565b610ed883610ea5565b840190509392505050565b6000819050919050565b6000610f08610f03610efe84610bf5565b610ee3565b610bf5565b9050919050565b6000610f1a82610eed565b9050919050565b6000610f2c82610f0f565b9050919050565b610f3c81610f21565b82525050565b610f4b81610c65565b82525050565b60006060820190508181036000830152610f6c818688610eb6565b9050610f7b6020830185610f33565b610f886040830184610f42565b95945050505050565b60006020820190508181036000830152610fac818486610eb6565b90509392505050565b600081905092915050565b6000610fcc8385610fb5565b9350610fd9838584610e96565b82840190509392505050565b6000610ff2828486610fc0565b91508190509392505050565b600060a0820190506110136000830188610f42565b6110206020830187610dc3565b61102d6040830186610dc3565b61103a6060830185610dc3565b6110476080830184610f42565b9695505050505050565b60008115159050919050565b61106681611051565b811461107157600080fd5b50565b6000815190506110838161105d565b92915050565b60006020828403121561109f5761109e610b86565b5b60006110ad84828501611074565b91505092915050565b60006040820190506110cb6000830185610dc3565b6110d86020830184610dc3565b9392505050565b6000815190506110ee81610c6f565b92915050565b60006020828403121561110a57611109610b86565b5b6000611118848285016110df565b91505092915050565b60008151905061113081610d0f565b92915050565b60006020828403121561114c5761114b610b86565b5b600061115a84828501611121565b91505092915050565b60006060820190506111786000830186610dc3565b6111856020830185610dc3565b6111926040830184610f42565b94935050505056fea26469706673582212206f57efef65e3fb021cea675bb485efbc5bc9a85343a377bf64bfb7f6d27cb3dd64736f6c634300081c0033",
  "linkReferences": {},
  "deployedLinkReferences": {}
}