{
  "_format": "hh-sol-artifact-1",
  "contractName": "TokenTransfer",
  "sourceName": "contracts/TokenTransfer.sol",
  "abi": [
    {
      "inputs": [
        {
          "internalType": "address",
          "name": "initialOwner",
          "type": "address"
        },
        {
          "internalType": "contract FeeMaster",
          "name": "feeMaster",
          "type": "address"
        }
      ],
      "stateMutability": "nonpayable",
      "type": "constructor"
    },
    {
      "inputs": [],
      "name": "AllowanceRequire",
      "type": "error"
    },
    {
      "inputs": [],
      "name": "AmountIncorrect",
      "type": "error"
    },
    {
      "inputs": [],
      "name": "FeeOutOfAmount",
      "type": "error"
    },
    {
      "inputs": [],
      "name": "FeeOutOfBalance",
      "type": "error"
    },
    {
      "inputs": [],
      "name": "IncorrectReceiveAddress",
      "type": "error"
    },
    {
      "inputs": [],
      "name": "InvalidFeeMasterAddress",
      "type": "error"
    },
    {
      "inputs": [],
      "name": "OutOfBalance",
      "type": "error"
    },
    {
      "inputs": [
        {
          "internalType": "address",
          "name": "owner",
          "type": "address"
        }
      ],
      "name": "OwnableInvalidOwner",
      "type": "error"
    },
    {
      "inputs": [
        {
          "internalType": "address",
          "name": "account",
          "type": "address"
        }
      ],
      "name": "OwnableUnauthorizedAccount",
      "type": "error"
    },
    {
      "inputs": [
        {
          "internalType": "address",
          "name": "token",
          "type": "address"
        }
      ],
      "name": "SafeERC20FailedOperation",
      "type": "error"
    },
    {
      "anonymous": false,
      "inputs": [
        {
          "indexed": false,
          "internalType": "uint256",
          "name": "time",
          "type": "uint256"
        },
        {
          "indexed": false,
          "internalType": "address",
          "name": "from",
          "type": "address"
        },
        {
          "indexed": false,
          "internalType": "address",
          "name": "to",
          "type": "address"
        },
        {
          "indexed": false,
          "internalType": "address",
          "name": "erc20Address",
          "type": "address"
        },
        {
          "indexed": false,
          "internalType": "uint256",
          "name": "amount",
          "type": "uint256"
        }
      ],
      "name": "FeeCollected",
      "type": "event"
    },
    {
      "anonymous": false,
      "inputs": [
        {
          "indexed": true,
          "internalType": "address",
          "name": "previousOwner",
          "type": "address"
        },
        {
          "indexed": true,
          "internalType": "address",
          "name": "newOwner",
          "type": "address"
        }
      ],
      "name": "OwnershipTransferred",
      "type": "event"
    },
    {
      "anonymous": false,
      "inputs": [
        {
          "indexed": false,
          "internalType": "uint256",
          "name": "time",
          "type": "uint256"
        },
        {
          "indexed": false,
          "internalType": "address",
          "name": "from",
          "type": "address"
        },
        {
          "indexed": false,
          "internalType": "address",
          "name": "to",
          "type": "address"
        },
        {
          "indexed": false,
          "internalType": "address",
          "name": "erc20Address",
          "type": "address"
        },
        {
          "indexed": false,
          "internalType": "uint256",
          "name": "amount",
          "type": "uint256"
        }
      ],
      "name": "TokenReceived",
      "type": "event"
    },
    {
      "anonymous": false,
      "inputs": [
        {
          "indexed": false,
          "internalType": "uint256",
          "name": "time",
          "type": "uint256"
        },
        {
          "indexed": false,
          "internalType": "address",
          "name": "from",
          "type": "address"
        },
        {
          "indexed": false,
          "internalType": "address",
          "name": "to",
          "type": "address"
        },
        {
          "indexed": false,
          "internalType": "address",
          "name": "erc20Address",
          "type": "address"
        },
        {
          "indexed": false,
          "internalType": "uint256",
          "name": "amount",
          "type": "uint256"
        }
      ],
      "name": "TokenTransfer",
      "type": "event"
    },
    {
      "anonymous": false,
      "inputs": [
        {
          "indexed": false,
          "internalType": "uint256",
          "name": "time",
          "type": "uint256"
        },
        {
          "indexed": false,
          "internalType": "address",
          "name": "from",
          "type": "address"
        },
        {
          "indexed": false,
          "internalType": "address",
          "name": "to",
          "type": "address"
        },
        {
          "indexed": false,
          "internalType": "address",
          "name": "erc20",
          "type": "address"
        },
        {
          "indexed": false,
          "internalType": "uint256",
          "name": "amount",
          "type": "uint256"
        },
        {
          "indexed": false,
          "internalType": "uint256",
          "name": "fee",
          "type": "uint256"
        }
      ],
      "name": "TransferEvent",
      "type": "event"
    },
    {
      "inputs": [
        {
          "internalType": "contract IERC20",
          "name": "erc20",
          "type": "address"
        },
        {
          "internalType": "uint256",
          "name": "amount",
          "type": "uint256"
        }
      ],
      "name": "feeCalculate",
      "outputs": [
        {
          "internalType": "uint256",
          "name": "",
          "type": "uint256"
        },
        {
          "internalType": "address",
          "name": "",
          "type": "address"
        }
      ],
      "stateMutability": "view",
      "type": "function"
    },
    {
      "inputs": [],
      "name": "owner",
      "outputs": [
        {
          "internalType": "address",
          "name": "",
          "type": "address"
        }
      ],
      "stateMutability": "view",
      "type": "function"
    },
    {
      "inputs": [],
      "name": "renounceOwnership",
      "outputs": [],
      "stateMutability": "nonpayable",
      "type": "function"
    },
    {
      "inputs": [
        {
          "internalType": "contract FeeMaster",
          "name": "feeMaster",
          "type": "address"
        }
      ],
      "name": "setFeeMaster",
      "outputs": [],
      "stateMutability": "nonpayable",
      "type": "function"
    },
    {
      "inputs": [
        {
          "internalType": "address",
          "name": "to",
          "type": "address"
        },
        {
          "internalType": "contract IERC20",
          "name": "erc20",
          "type": "address"
        },
        {
          "internalType": "uint256",
          "name": "amount",
          "type": "uint256"
        }
      ],
      "name": "transfer",
      "outputs": [],
      "stateMutability": "nonpayable",
      "type": "function"
    },
    {
      "inputs": [
        {
          "internalType": "address",
          "name": "newOwner",
          "type": "address"
        }
      ],
      "name": "transferOwnership",
      "outputs": [],
      "stateMutability": "nonpayable",
      "type": "function"
    }
  ],
  "bytecode": "0x608060405234801561001057600080fd5b506040516112ba3803806112ba833981810160405281019061003291906102dc565b8082600073ffffffffffffffffffffffffffffffffffffffff168173ffffffffffffffffffffffffffffffffffffffff16036100a65760006040517f1e4fbdf700000000000000000000000000000000000000000000000000000000815260040161009d919061032b565b60405180910390fd5b6100b5816100cd60201b60201c565b506100c58161019160201b60201c565b505050610346565b60008060009054906101000a900473ffffffffffffffffffffffffffffffffffffffff169050816000806101000a81548173ffffffffffffffffffffffffffffffffffffffff021916908373ffffffffffffffffffffffffffffffffffffffff1602179055508173ffffffffffffffffffffffffffffffffffffffff168173ffffffffffffffffffffffffffffffffffffffff167f8be0079c531659141344cd1fd0a4f28419497f9722a3daafe3b4186f6b6457e060405160405180910390a35050565b600073ffffffffffffffffffffffffffffffffffffffff168173ffffffffffffffffffffffffffffffffffffffff16036101f7576040517fa5b5e86f00000000000000000000000000000000000000000000000000000000815260040160405180910390fd5b80600160006101000a81548173ffffffffffffffffffffffffffffffffffffffff021916908373ffffffffffffffffffffffffffffffffffffffff16021790555050565b600080fd5b600073ffffffffffffffffffffffffffffffffffffffff82169050919050565b600061026b82610240565b9050919050565b61027b81610260565b811461028657600080fd5b50565b60008151905061029881610272565b92915050565b60006102a982610260565b9050919050565b6102b98161029e565b81146102c457600080fd5b50565b6000815190506102d6816102b0565b92915050565b600080604083850312156102f3576102f261023b565b5b600061030185828601610289565b9250506020610312858286016102c7565b9150509250929050565b61032581610260565b82525050565b6000602082019050610340600083018461031c565b92915050565b610f65806103556000396000f3fe608060405234801561001057600080fd5b50600436106100625760003560e01c80635029945814610067578063715018a6146100985780638da5cb5b146100a2578063beabacc8146100c0578063d610cd53146100dc578063f2fde38b146100f8575b600080fd5b610081600480360381019061007c9190610ae0565b610114565b60405161008f929190610b3e565b60405180910390f35b6100a06101bf565b005b6100aa6101d3565b6040516100b79190610b67565b60405180910390f35b6100da60048036038101906100d59190610bae565b6101fc565b005b6100f660048036038101906100f19190610c3f565b61027e565b005b610112600480360381019061010d9190610c6c565b610292565b005b600080600160009054906101000a900473ffffffffffffffffffffffffffffffffffffffff1673ffffffffffffffffffffffffffffffffffffffff16635029945885856040518363ffffffff1660e01b8152600401610174929190610cf8565b6040805180830381865afa158015610190573d6000803e3d6000fd5b505050506040513d601f19601f820116820180604052508101906101b49190610d4b565b915091509250929050565b6101c7610318565b6101d1600061039f565b565b60008060009054906101000a900473ffffffffffffffffffffffffffffffffffffffff16905090565b81816102088282610463565b6000610215338686610522565b509050600081856102269190610dba565b9050610234338888846106c2565b7f5a4d3a22398798c9cfb50583adfc190c4bcd8cbe54f172d82afb301b92fab49c42338989858760405161026d96959493929190610dee565b60405180910390a150505050505050565b610286610318565b61028f8161085f565b50565b61029a610318565b600073ffffffffffffffffffffffffffffffffffffffff168173ffffffffffffffffffffffffffffffffffffffff160361030c5760006040517f1e4fbdf70000000000000000000000000000000000000000000000000000000081526004016103039190610b67565b60405180910390fd5b6103158161039f565b50565b610320610909565b73ffffffffffffffffffffffffffffffffffffffff1661033e6101d3565b73ffffffffffffffffffffffffffffffffffffffff161461039d57610361610909565b6040517f118cdaa70000000000000000000000000000000000000000000000000000000081526004016103949190610b67565b60405180910390fd5b565b60008060009054906101000a900473ffffffffffffffffffffffffffffffffffffffff169050816000806101000a81548173ffffffffffffffffffffffffffffffffffffffff021916908373ffffffffffffffffffffffffffffffffffffffff1602179055508173ffffffffffffffffffffffffffffffffffffffff168173ffffffffffffffffffffffffffffffffffffffff167f8be0079c531659141344cd1fd0a4f28419497f9722a3daafe3b4186f6b6457e060405160405180910390a35050565b60008273ffffffffffffffffffffffffffffffffffffffff1663dd62ed3e33306040518363ffffffff1660e01b81526004016104a0929190610e4f565b602060405180830381865afa1580156104bd573d6000803e3d6000fd5b505050506040513d601f19601f820116820180604052508101906104e19190610e78565b90508181101561051d576040517ffcc5256e00000000000000000000000000000000000000000000000000000000815260040160405180910390fd5b505050565b6000808484846000806105358484610114565b91509150818473ffffffffffffffffffffffffffffffffffffffff166370a08231876040518263ffffffff1660e01b81526004016105739190610b67565b602060405180830381865afa158015610590573d6000803e3d6000fd5b505050506040513d601f19601f820116820180604052508101906105b49190610e78565b10156105ec576040517f8903260400000000000000000000000000000000000000000000000000000000815260040160405180910390fd5b82821115610626576040517f459c48ea00000000000000000000000000000000000000000000000000000000815260040160405180910390fd5b6000806106338b8b610114565b91509150600082111561066e5761066d8c82848e73ffffffffffffffffffffffffffffffffffffffff16610911909392919063ffffffff16565b5b81819850985050507fe780c2f673701c03bd52ecfb598243a339798c9e3ec10a3df8c2eceee570011842868387866040516106ad959493929190610ea5565b60405180910390a15050505050935093915050565b83838383808273ffffffffffffffffffffffffffffffffffffffff166370a08231866040518263ffffffff1660e01b81526004016107009190610b67565b602060405180830381865afa15801561071d573d6000803e3d6000fd5b505050506040513d601f19601f820116820180604052508101906107419190610e78565b1015610779576040517fe48da08800000000000000000000000000000000000000000000000000000000815260040160405180910390fd5b600073ffffffffffffffffffffffffffffffffffffffff168373ffffffffffffffffffffffffffffffffffffffff16036107df576040517fd6cd477300000000000000000000000000000000000000000000000000000000815260040160405180910390fd5b6000851115610816576108158888878973ffffffffffffffffffffffffffffffffffffffff16610911909392919063ffffffff16565b5b7f94805c331332e141198757f944dacafe5617bc22662bed67d4a252417312b792428585858560405161084d959493929190610ea5565b60405180910390a15050505050505050565b600073ffffffffffffffffffffffffffffffffffffffff168173ffffffffffffffffffffffffffffffffffffffff16036108c5576040517fa5b5e86f00000000000000000000000000000000000000000000000000000000815260040160405180910390fd5b80600160006101000a81548173ffffffffffffffffffffffffffffffffffffffff021916908373ffffffffffffffffffffffffffffffffffffffff16021790555050565b600033905090565b61098d848573ffffffffffffffffffffffffffffffffffffffff166323b872dd86868660405160240161094693929190610ef8565b604051602081830303815290604052915060e01b6020820180517bffffffffffffffffffffffffffffffffffffffffffffffffffffffff8381831617835250505050610993565b50505050565b600080602060008451602086016000885af1806109b6576040513d6000823e3d81fd5b3d9250600051915050600082146109d15760018114156109ed565b60008473ffffffffffffffffffffffffffffffffffffffff163b145b15610a2f57836040517f5274afe7000000000000000000000000000000000000000000000000000000008152600401610a269190610b67565b60405180910390fd5b50505050565b600080fd5b600073ffffffffffffffffffffffffffffffffffffffff82169050919050565b6000610a6582610a3a565b9050919050565b6000610a7782610a5a565b9050919050565b610a8781610a6c565b8114610a9257600080fd5b50565b600081359050610aa481610a7e565b92915050565b6000819050919050565b610abd81610aaa565b8114610ac857600080fd5b50565b600081359050610ada81610ab4565b92915050565b60008060408385031215610af757610af6610a35565b5b6000610b0585828601610a95565b9250506020610b1685828601610acb565b9150509250929050565b610b2981610aaa565b82525050565b610b3881610a5a565b82525050565b6000604082019050610b536000830185610b20565b610b606020830184610b2f565b9392505050565b6000602082019050610b7c6000830184610b2f565b92915050565b610b8b81610a5a565b8114610b9657600080fd5b50565b600081359050610ba881610b82565b92915050565b600080600060608486031215610bc757610bc6610a35565b5b6000610bd586828701610b99565b9350506020610be686828701610a95565b9250506040610bf786828701610acb565b9150509250925092565b6000610c0c82610a5a565b9050919050565b610c1c81610c01565b8114610c2757600080fd5b50565b600081359050610c3981610c13565b92915050565b600060208284031215610c5557610c54610a35565b5b6000610c6384828501610c2a565b91505092915050565b600060208284031215610c8257610c81610a35565b5b6000610c9084828501610b99565b91505092915050565b6000819050919050565b6000610cbe610cb9610cb484610a3a565b610c99565b610a3a565b9050919050565b6000610cd082610ca3565b9050919050565b6000610ce282610cc5565b9050919050565b610cf281610cd7565b82525050565b6000604082019050610d0d6000830185610ce9565b610d1a6020830184610b20565b9392505050565b600081519050610d3081610ab4565b92915050565b600081519050610d4581610b82565b92915050565b60008060408385031215610d6257610d61610a35565b5b6000610d7085828601610d21565b9250506020610d8185828601610d36565b9150509250929050565b7f4e487b7100000000000000000000000000000000000000000000000000000000600052601160045260246000fd5b6000610dc582610aaa565b9150610dd083610aaa565b9250828203905081811115610de857610de7610d8b565b5b92915050565b600060c082019050610e036000830189610b20565b610e106020830188610b2f565b610e1d6040830187610b2f565b610e2a6060830186610b2f565b610e376080830185610b20565b610e4460a0830184610b20565b979650505050505050565b6000604082019050610e646000830185610b2f565b610e716020830184610b2f565b9392505050565b600060208284031215610e8e57610e8d610a35565b5b6000610e9c84828501610d21565b91505092915050565b600060a082019050610eba6000830188610b20565b610ec76020830187610b2f565b610ed46040830186610b2f565b610ee16060830185610b2f565b610eee6080830184610b20565b9695505050505050565b6000606082019050610f0d6000830186610b2f565b610f1a6020830185610b2f565b610f276040830184610b20565b94935050505056fea264697066735822122091333a37a10563c5664aff685c02f20f08ac24789157b37196134a9e7f86300164736f6c634300081c0033",
  "linkReferences": {},
  "deployedLinkReferences": {}
}