{
  "_format": "hh-sol-artifact-1",
  "contractName": "FeeMaster",
  "sourceName": "contracts/FeeMaster.sol",
  "abi": [
    {
      "inputs": [
        {
          "internalType": "address",
          "name": "initialOwner",
          "type": "address"
        }
      ],
      "stateMutability": "nonpayable",
      "type": "constructor"
    },
    {
      "inputs": [],
      "name": "IncorrectFeeReceiver",
      "type": "error"
    },
    {
      "inputs": [],
      "name": "IncorrectIssuingAuthority",
      "type": "error"
    },
    {
      "inputs": [],
      "name": "IncorrectTxOwner",
      "type": "error"
    },
    {
      "inputs": [
        {
          "internalType": "address",
          "name": "owner",
          "type": "address"
        }
      ],
      "name": "OwnableInvalidOwner",
      "type": "error"
    },
    {
      "inputs": [
        {
          "internalType": "address",
          "name": "account",
          "type": "address"
        }
      ],
      "name": "OwnableUnauthorizedAccount",
      "type": "error"
    },
    {
      "anonymous": false,
      "inputs": [
        {
          "indexed": true,
          "internalType": "address",
          "name": "previousOwner",
          "type": "address"
        },
        {
          "indexed": true,
          "internalType": "address",
          "name": "newOwner",
          "type": "address"
        }
      ],
      "name": "OwnershipTransferred",
      "type": "event"
    },
    {
      "inputs": [
        {
          "internalType": "string",
          "name": "txCode",
          "type": "string"
        }
      ],
      "name": "closeTransaction",
      "outputs": [],
      "stateMutability": "nonpayable",
      "type": "function"
    },
    {
      "inputs": [
        {
          "internalType": "string",
          "name": "txCode",
          "type": "string"
        }
      ],
      "name": "endTransaction",
      "outputs": [],
      "stateMutability": "nonpayable",
      "type": "function"
    },
    {
      "inputs": [],
      "name": "getFeeReceiver",
      "outputs": [
        {
          "internalType": "address",
          "name": "",
          "type": "address"
        }
      ],
      "stateMutability": "view",
      "type": "function"
    },
    {
      "inputs": [
        {
          "internalType": "string",
          "name": "txCode",
          "type": "string"
        }
      ],
      "name": "isInTransaction",
      "outputs": [
        {
          "internalType": "bool",
          "name": "",
          "type": "bool"
        }
      ],
      "stateMutability": "view",
      "type": "function"
    },
    {
      "inputs": [],
      "name": "owner",
      "outputs": [
        {
          "internalType": "address",
          "name": "",
          "type": "address"
        }
      ],
      "stateMutability": "view",
      "type": "function"
    },
    {
      "inputs": [],
      "name": "renounceOwnership",
      "outputs": [],
      "stateMutability": "nonpayable",
      "type": "function"
    },
    {
      "inputs": [
        {
          "internalType": "address",
          "name": "_feeIssuingAuthority",
          "type": "address"
        }
      ],
      "name": "setFeeIssuingAuthority",
      "outputs": [],
      "stateMutability": "nonpayable",
      "type": "function"
    },
    {
      "inputs": [
        {
          "internalType": "address",
          "name": "_feeReceiver",
          "type": "address"
        }
      ],
      "name": "setFeeReceiver",
      "outputs": [],
      "stateMutability": "nonpayable",
      "type": "function"
    },
    {
      "inputs": [
        {
          "internalType": "string",
          "name": "txCode",
          "type": "string"
        }
      ],
      "name": "startTransaction",
      "outputs": [],
      "stateMutability": "nonpayable",
      "type": "function"
    },
    {
      "inputs": [
        {
          "internalType": "address",
          "name": "newOwner",
          "type": "address"
        }
      ],
      "name": "transferOwnership",
      "outputs": [],
      "stateMutability": "nonpayable",
      "type": "function"
    },
    {
      "inputs": [
        {
          "internalType": "string",
          "name": "txCode",
          "type": "string"
        },
        {
          "internalType": "contract IERC20",
          "name": "erc20",
          "type": "address"
        },
        {
          "internalType": "uint256",
          "name": "amount",
          "type": "uint256"
        }
      ],
      "name": "verifyTransaction",
      "outputs": [],
      "stateMutability": "nonpayable",
      "type": "function"
    }
  ],
  "bytecode": "0x608060405234801561001057600080fd5b50604051610fb0380380610fb08339818101604052810190610032919061043a565b80600073ffffffffffffffffffffffffffffffffffffffff168173ffffffffffffffffffffffffffffffffffffffff16036100a55760006040517f1e4fbdf700000000000000000000000000000000000000000000000000000000815260040161009c9190610476565b60405180910390fd5b6100b4816100d960201b60201c565b506100c48161019d60201b60201c565b6100d38161025560201b60201c565b50610491565b60008060009054906101000a900473ffffffffffffffffffffffffffffffffffffffff169050816000806101000a81548173ffffffffffffffffffffffffffffffffffffffff021916908373ffffffffffffffffffffffffffffffffffffffff1602179055508173ffffffffffffffffffffffffffffffffffffffff168173ffffffffffffffffffffffffffffffffffffffff167f8be0079c531659141344cd1fd0a4f28419497f9722a3daafe3b4186f6b6457e060405160405180910390a35050565b6101ab61030d60201b60201c565b600073ffffffffffffffffffffffffffffffffffffffff168173ffffffffffffffffffffffffffffffffffffffff1603610211576040517f1a518f4000000000000000000000000000000000000000000000000000000000815260040160405180910390fd5b80600160006101000a81548173ffffffffffffffffffffffffffffffffffffffff021916908373ffffffffffffffffffffffffffffffffffffffff16021790555050565b61026361030d60201b60201c565b600073ffffffffffffffffffffffffffffffffffffffff168173ffffffffffffffffffffffffffffffffffffffff16036102c9576040517facd3342a00000000000000000000000000000000000000000000000000000000815260040160405180910390fd5b80600260006101000a81548173ffffffffffffffffffffffffffffffffffffffff021916908373ffffffffffffffffffffffffffffffffffffffff16021790555050565b61031b6103a660201b60201c565b73ffffffffffffffffffffffffffffffffffffffff1661033f6103ae60201b60201c565b73ffffffffffffffffffffffffffffffffffffffff16146103a4576103686103a660201b60201c565b6040517f118cdaa700000000000000000000000000000000000000000000000000000000815260040161039b9190610476565b60405180910390fd5b565b600033905090565b60008060009054906101000a900473ffffffffffffffffffffffffffffffffffffffff16905090565b600080fd5b600073ffffffffffffffffffffffffffffffffffffffff82169050919050565b6000610407826103dc565b9050919050565b610417816103fc565b811461042257600080fd5b50565b6000815190506104348161040e565b92915050565b6000602082840312156104505761044f6103d7565b5b600061045e84828501610425565b91505092915050565b610470816103fc565b82525050565b600060208201905061048b6000830184610467565b92915050565b610b10806104a06000396000f3fe608060405234801561001057600080fd5b50600436106100a95760003560e01c8063960a501111610071578063960a50111461013e578063a5bc17f51461015a578063d867dd1c14610176578063e8a3539214610192578063efdcd974146101b0578063f2fde38b146101cc576100a9565b806324f47bbd146100ae5780633733f53e146100ca5780635b0a4e92146100e6578063715018a6146101165780638da5cb5b14610120575b600080fd5b6100c860048036038101906100c3919061085b565b6101e8565b005b6100e460048036038101906100df91906108ed565b61029a565b005b61010060048036038101906100fb91906108ed565b61038c565b60405161010d9190610955565b60405180910390f35b61011e6103c7565b005b6101286103db565b604051610135919061097f565b60405180910390f35b610158600480360381019061015391906108ed565b610404565b005b610174600480360381019061016f91906108ed565b61041a565b005b610190600480360381019061018b9190610a0e565b6104d6565b005b61019a6104dc565b6040516101a7919061097f565b60405180910390f35b6101ca60048036038101906101c5919061085b565b610506565b005b6101e660048036038101906101e1919061085b565b6105b8565b005b6101f061063e565b600073ffffffffffffffffffffffffffffffffffffffff168173ffffffffffffffffffffffffffffffffffffffff1603610256576040517facd3342a00000000000000000000000000000000000000000000000000000000815260040160405180910390fd5b80600260006101000a81548173ffffffffffffffffffffffffffffffffffffffff021916908373ffffffffffffffffffffffffffffffffffffffff16021790555050565b600382826040516102ac929190610ac1565b908152602001604051809103902060000160009054906101000a900460ff1615801561034757503373ffffffffffffffffffffffffffffffffffffffff16600383836040516102fc929190610ac1565b908152602001604051809103902060000160019054906101000a900473ffffffffffffffffffffffffffffffffffffffff1673ffffffffffffffffffffffffffffffffffffffff1614155b1561037e576040517fc923ffd600000000000000000000000000000000000000000000000000000000815260040160405180910390fd5b61038882826106c5565b5050565b6000600383836040516103a0929190610ac1565b908152602001604051809103902060000160009054906101000a900460ff16905092915050565b6103cf61063e565b6103d96000610727565b565b60008060009054906101000a900473ffffffffffffffffffffffffffffffffffffffff16905090565b61040c61063e565b61041682826106c5565b5050565b60405180604001604052806001151581526020013373ffffffffffffffffffffffffffffffffffffffff168152506003838360405161045a929190610ac1565b908152602001604051809103902060008201518160000160006101000a81548160ff02191690831515021790555060208201518160000160016101000a81548173ffffffffffffffffffffffffffffffffffffffff021916908373ffffffffffffffffffffffffffffffffffffffff1602179055509050505050565b50505050565b6000600160009054906101000a900473ffffffffffffffffffffffffffffffffffffffff16905090565b61050e61063e565b600073ffffffffffffffffffffffffffffffffffffffff168173ffffffffffffffffffffffffffffffffffffffff1603610574576040517f1a518f4000000000000000000000000000000000000000000000000000000000815260040160405180910390fd5b80600160006101000a81548173ffffffffffffffffffffffffffffffffffffffff021916908373ffffffffffffffffffffffffffffffffffffffff16021790555050565b6105c061063e565b600073ffffffffffffffffffffffffffffffffffffffff168173ffffffffffffffffffffffffffffffffffffffff16036106325760006040517f1e4fbdf7000000000000000000000000000000000000000000000000000000008152600401610629919061097f565b60405180910390fd5b61063b81610727565b50565b6106466107eb565b73ffffffffffffffffffffffffffffffffffffffff166106646103db565b73ffffffffffffffffffffffffffffffffffffffff16146106c3576106876107eb565b6040517f118cdaa70000000000000000000000000000000000000000000000000000000081526004016106ba919061097f565b60405180910390fd5b565b600382826040516106d7929190610ac1565b9081526020016040518091039020600080820160006101000a81549060ff02191690556000820160016101000a81549073ffffffffffffffffffffffffffffffffffffffff021916905550505050565b60008060009054906101000a900473ffffffffffffffffffffffffffffffffffffffff169050816000806101000a81548173ffffffffffffffffffffffffffffffffffffffff021916908373ffffffffffffffffffffffffffffffffffffffff1602179055508173ffffffffffffffffffffffffffffffffffffffff168173ffffffffffffffffffffffffffffffffffffffff167f8be0079c531659141344cd1fd0a4f28419497f9722a3daafe3b4186f6b6457e060405160405180910390a35050565b600033905090565b600080fd5b600080fd5b600073ffffffffffffffffffffffffffffffffffffffff82169050919050565b6000610828826107fd565b9050919050565b6108388161081d565b811461084357600080fd5b50565b6000813590506108558161082f565b92915050565b600060208284031215610871576108706107f3565b5b600061087f84828501610846565b91505092915050565b600080fd5b600080fd5b600080fd5b60008083601f8401126108ad576108ac610888565b5b8235905067ffffffffffffffff8111156108ca576108c961088d565b5b6020830191508360018202830111156108e6576108e5610892565b5b9250929050565b60008060208385031215610904576109036107f3565b5b600083013567ffffffffffffffff811115610922576109216107f8565b5b61092e85828601610897565b92509250509250929050565b60008115159050919050565b61094f8161093a565b82525050565b600060208201905061096a6000830184610946565b92915050565b6109798161081d565b82525050565b60006020820190506109946000830184610970565b92915050565b60006109a58261081d565b9050919050565b6109b58161099a565b81146109c057600080fd5b50565b6000813590506109d2816109ac565b92915050565b6000819050919050565b6109eb816109d8565b81146109f657600080fd5b50565b600081359050610a08816109e2565b92915050565b60008060008060608587031215610a2857610a276107f3565b5b600085013567ffffffffffffffff811115610a4657610a456107f8565b5b610a5287828801610897565b94509450506020610a65878288016109c3565b9250506040610a76878288016109f9565b91505092959194509250565b600081905092915050565b82818337600083830152505050565b6000610aa88385610a82565b9350610ab5838584610a8d565b82840190509392505050565b6000610ace828486610a9c565b9150819050939250505056fea2646970667358221220325c5b8f089b6bd8477ca1fcc91f2f6ffcfbba68208c209d19cc4d9c3025182464736f6c634300081c0033",
  "linkReferences": {},
  "deployedLinkReferences": {}
}