{
  "_format": "hh-sol-artifact-1",
  "contractName": "FeeMaster",
  "sourceName": "contracts/FeeMaster.sol",
  "abi": [
    {
      "inputs": [
        {
          "internalType": "address",
          "name": "initialOwner",
          "type": "address"
        }
      ],
      "stateMutability": "nonpayable",
      "type": "constructor"
    },
    {
      "inputs": [],
      "name": "IncorrectFeeReceiver",
      "type": "error"
    },
    {
      "inputs": [
        {
          "internalType": "address",
          "name": "owner",
          "type": "address"
        }
      ],
      "name": "OwnableInvalidOwner",
      "type": "error"
    },
    {
      "inputs": [
        {
          "internalType": "address",
          "name": "account",
          "type": "address"
        }
      ],
      "name": "OwnableUnauthorizedAccount",
      "type": "error"
    },
    {
      "anonymous": false,
      "inputs": [
        {
          "indexed": true,
          "internalType": "address",
          "name": "previousOwner",
          "type": "address"
        },
        {
          "indexed": true,
          "internalType": "address",
          "name": "newOwner",
          "type": "address"
        }
      ],
      "name": "OwnershipTransferred",
      "type": "event"
    },
    {
      "inputs": [
        {
          "internalType": "address",
          "name": "erc20Address",
          "type": "address"
        },
        {
          "internalType": "enum FeeMaster.FeeType",
          "name": "feeType",
          "type": "uint8"
        },
        {
          "internalType": "uint256",
          "name": "value",
          "type": "uint256"
        }
      ],
      "name": "addFeeRule",
      "outputs": [],
      "stateMutability": "nonpayable",
      "type": "function"
    },
    {
      "inputs": [
        {
          "internalType": "contract IERC20",
          "name": "erc20",
          "type": "address"
        },
        {
          "internalType": "uint256",
          "name": "amount",
          "type": "uint256"
        }
      ],
      "name": "feeCalculate",
      "outputs": [
        {
          "internalType": "uint256",
          "name": "",
          "type": "uint256"
        },
        {
          "internalType": "address",
          "name": "",
          "type": "address"
        }
      ],
      "stateMutability": "view",
      "type": "function"
    },
    {
      "inputs": [],
      "name": "owner",
      "outputs": [
        {
          "internalType": "address",
          "name": "",
          "type": "address"
        }
      ],
      "stateMutability": "view",
      "type": "function"
    },
    {
      "inputs": [],
      "name": "renounceOwnership",
      "outputs": [],
      "stateMutability": "nonpayable",
      "type": "function"
    },
    {
      "inputs": [
        {
          "internalType": "address",
          "name": "_feeReceiver",
          "type": "address"
        }
      ],
      "name": "setFeeReceiver",
      "outputs": [],
      "stateMutability": "nonpayable",
      "type": "function"
    },
    {
      "inputs": [
        {
          "internalType": "address",
          "name": "newOwner",
          "type": "address"
        }
      ],
      "name": "transferOwnership",
      "outputs": [],
      "stateMutability": "nonpayable",
      "type": "function"
    }
  ],
  "bytecode": "0x608060405260405180606001604052806001151581526020016000600181111561002c5761002b6103a0565b5b81526020016000815250600260008201518160000160006101000a81548160ff02191690831515021790555060208201518160000160016101000a81548160ff02191690836001811115610083576100826103a0565b5b02179055506040820151816001015550503480156100a057600080fd5b50604051610e88380380610e8883398181016040528101906100c29190610432565b80600073ffffffffffffffffffffffffffffffffffffffff168173ffffffffffffffffffffffffffffffffffffffff16036101355760006040517f1e4fbdf700000000000000000000000000000000000000000000000000000000815260040161012c919061046e565b60405180910390fd5b6101448161015a60201b60201c565b506101548161021e60201b60201c565b50610489565b60008060009054906101000a900473ffffffffffffffffffffffffffffffffffffffff169050816000806101000a81548173ffffffffffffffffffffffffffffffffffffffff021916908373ffffffffffffffffffffffffffffffffffffffff1602179055508173ffffffffffffffffffffffffffffffffffffffff168173ffffffffffffffffffffffffffffffffffffffff167f8be0079c531659141344cd1fd0a4f28419497f9722a3daafe3b4186f6b6457e060405160405180910390a35050565b61022c6102d660201b60201c565b600073ffffffffffffffffffffffffffffffffffffffff168173ffffffffffffffffffffffffffffffffffffffff1603610292576040517f1a518f4000000000000000000000000000000000000000000000000000000000815260040160405180910390fd5b80600160006101000a81548173ffffffffffffffffffffffffffffffffffffffff021916908373ffffffffffffffffffffffffffffffffffffffff16021790555050565b6102e461036f60201b60201c565b73ffffffffffffffffffffffffffffffffffffffff1661030861037760201b60201c565b73ffffffffffffffffffffffffffffffffffffffff161461036d5761033161036f60201b60201c565b6040517f118cdaa7000000000000000000000000000000000000000000000000000000008152600401610364919061046e565b60405180910390fd5b565b600033905090565b60008060009054906101000a900473ffffffffffffffffffffffffffffffffffffffff16905090565b7f4e487b7100000000000000000000000000000000000000000000000000000000600052602160045260246000fd5b600080fd5b600073ffffffffffffffffffffffffffffffffffffffff82169050919050565b60006103ff826103d4565b9050919050565b61040f816103f4565b811461041a57600080fd5b50565b60008151905061042c81610406565b92915050565b600060208284031215610448576104476103cf565b5b60006104568482850161041d565b91505092915050565b610468816103f4565b82525050565b6000602082019050610483600083018461045f565b92915050565b6109f0806104986000396000f3fe608060405234801561001057600080fd5b50600436106100625760003560e01c806347a0d2c9146100675780635029945814610083578063715018a6146100b45780638da5cb5b146100be578063efdcd974146100dc578063f2fde38b146100f8575b600080fd5b610081600480360381019061007c919061075a565b610114565b005b61009d600480360381019061009891906107eb565b6101ed565b6040516100ab929190610849565b60405180910390f35b6100bc6103d4565b005b6100c66103e8565b6040516100d39190610872565b60405180910390f35b6100f660048036038101906100f1919061088d565b610411565b005b610112600480360381019061010d919061088d565b6104c3565b005b61011c610549565b6040518060600160405280600115158152602001836001811115610143576101426108ba565b5b815260200182815250600460008573ffffffffffffffffffffffffffffffffffffffff1673ffffffffffffffffffffffffffffffffffffffff16815260200190815260200160002060008201518160000160006101000a81548160ff02191690831515021790555060208201518160000160016101000a81548160ff021916908360018111156101d6576101d56108ba565b5b021790555060408201518160010155905050505050565b6000806000600460008673ffffffffffffffffffffffffffffffffffffffff1673ffffffffffffffffffffffffffffffffffffffff1681526020019081526020016000206040518060600160405290816000820160009054906101000a900460ff161515151581526020016000820160019054906101000a900460ff16600181111561027c5761027b6108ba565b5b600181111561028e5761028d6108ba565b5b8152602001600182015481525050905080600001516103175760026040518060600160405290816000820160009054906101000a900460ff161515151581526020016000820160019054906101000a900460ff1660018111156102f4576102f36108ba565b5b6001811115610306576103056108ba565b5b815260200160018201548152505090505b600080600181111561032c5761032b6108ba565b5b82602001516001811115610343576103426108ba565b5b0361035457816040015190506103a3565b600180811115610367576103666108ba565b5b8260200151600181111561037e5761037d6108ba565b5b036103a25781604001516064866103959190610947565b61039f9190610978565b90505b5b80600160009054906101000a900473ffffffffffffffffffffffffffffffffffffffff169350935050509250929050565b6103dc610549565b6103e660006105d0565b565b60008060009054906101000a900473ffffffffffffffffffffffffffffffffffffffff16905090565b610419610549565b600073ffffffffffffffffffffffffffffffffffffffff168173ffffffffffffffffffffffffffffffffffffffff160361047f576040517f1a518f4000000000000000000000000000000000000000000000000000000000815260040160405180910390fd5b80600160006101000a81548173ffffffffffffffffffffffffffffffffffffffff021916908373ffffffffffffffffffffffffffffffffffffffff16021790555050565b6104cb610549565b600073ffffffffffffffffffffffffffffffffffffffff168173ffffffffffffffffffffffffffffffffffffffff160361053d5760006040517f1e4fbdf70000000000000000000000000000000000000000000000000000000081526004016105349190610872565b60405180910390fd5b610546816105d0565b50565b610551610694565b73ffffffffffffffffffffffffffffffffffffffff1661056f6103e8565b73ffffffffffffffffffffffffffffffffffffffff16146105ce57610592610694565b6040517f118cdaa70000000000000000000000000000000000000000000000000000000081526004016105c59190610872565b60405180910390fd5b565b60008060009054906101000a900473ffffffffffffffffffffffffffffffffffffffff169050816000806101000a81548173ffffffffffffffffffffffffffffffffffffffff021916908373ffffffffffffffffffffffffffffffffffffffff1602179055508173ffffffffffffffffffffffffffffffffffffffff168173ffffffffffffffffffffffffffffffffffffffff167f8be0079c531659141344cd1fd0a4f28419497f9722a3daafe3b4186f6b6457e060405160405180910390a35050565b600033905090565b600080fd5b600073ffffffffffffffffffffffffffffffffffffffff82169050919050565b60006106cc826106a1565b9050919050565b6106dc816106c1565b81146106e757600080fd5b50565b6000813590506106f9816106d3565b92915050565b6002811061070c57600080fd5b50565b60008135905061071e816106ff565b92915050565b6000819050919050565b61073781610724565b811461074257600080fd5b50565b6000813590506107548161072e565b92915050565b6000806000606084860312156107735761077261069c565b5b6000610781868287016106ea565b93505060206107928682870161070f565b92505060406107a386828701610745565b9150509250925092565b60006107b8826106c1565b9050919050565b6107c8816107ad565b81146107d357600080fd5b50565b6000813590506107e5816107bf565b92915050565b600080604083850312156108025761080161069c565b5b6000610810858286016107d6565b925050602061082185828601610745565b9150509250929050565b61083481610724565b82525050565b610843816106c1565b82525050565b600060408201905061085e600083018561082b565b61086b602083018461083a565b9392505050565b6000602082019050610887600083018461083a565b92915050565b6000602082840312156108a3576108a261069c565b5b60006108b1848285016106ea565b91505092915050565b7f4e487b7100000000000000000000000000000000000000000000000000000000600052602160045260246000fd5b7f4e487b7100000000000000000000000000000000000000000000000000000000600052601260045260246000fd5b7f4e487b7100000000000000000000000000000000000000000000000000000000600052601160045260246000fd5b600061095282610724565b915061095d83610724565b92508261096d5761096c6108e9565b5b828204905092915050565b600061098382610724565b915061098e83610724565b925082820261099c81610724565b915082820484148315176109b3576109b2610918565b5b509291505056fea2646970667358221220d78298de654b06a6d1da6062eae3773dfa8b55bfd8685f27b63adb7c4214938964736f6c634300081c0033",
  "linkReferences": {},
  "deployedLinkReferences": {}
}