{
  "_format": "hh-sol-artifact-1",
  "contractName": "SimpleTransfer",
  "sourceName": "contracts/SimpleTransfer.sol",
  "abi": [
    {
      "inputs": [
        {
          "internalType": "address",
          "name": "token",
          "type": "address"
        }
      ],
      "name": "SafeERC20FailedOperation",
      "type": "error"
    },
    {
      "anonymous": false,
      "inputs": [
        {
          "indexed": false,
          "internalType": "uint256",
          "name": "time",
          "type": "uint256"
        },
        {
          "indexed": false,
          "internalType": "address",
          "name": "from",
          "type": "address"
        },
        {
          "indexed": false,
          "internalType": "address",
          "name": "to",
          "type": "address"
        },
        {
          "indexed": false,
          "internalType": "address",
          "name": "erc20",
          "type": "address"
        },
        {
          "indexed": false,
          "internalType": "uint256",
          "name": "amount",
          "type": "uint256"
        },
        {
          "indexed": false,
          "internalType": "uint256",
          "name": "fee",
          "type": "uint256"
        }
      ],
      "name": "TransferEvent",
      "type": "event"
    },
    {
      "inputs": [
        {
          "internalType": "address",
          "name": "to",
          "type": "address"
        },
        {
          "internalType": "contract IERC20",
          "name": "erc20",
          "type": "address"
        },
        {
          "internalType": "uint256",
          "name": "amount",
          "type": "uint256"
        }
      ],
      "name": "transfer",
      "outputs": [],
      "stateMutability": "nonpayable",
      "type": "function"
    }
  ],
  "bytecode": "0x6080604052348015600f57600080fd5b5061045a8061001f6000396000f3fe608060405234801561001057600080fd5b506004361061002b5760003560e01c8063beabacc814610030575b600080fd5b61004a600480360381019061004591906102bb565b61004c565b005b6100793384838573ffffffffffffffffffffffffffffffffffffffff166100c0909392919063ffffffff16565b7f5a4d3a22398798c9cfb50583adfc190c4bcd8cbe54f172d82afb301b92fab49c423385858560006040516100b396959493929190610371565b60405180910390a1505050565b61013c848573ffffffffffffffffffffffffffffffffffffffff166323b872dd8686866040516024016100f5939291906103d2565b604051602081830303815290604052915060e01b6020820180517bffffffffffffffffffffffffffffffffffffffffffffffffffffffff8381831617835250505050610142565b50505050565b600080602060008451602086016000885af180610165576040513d6000823e3d81fd5b3d92506000519150506000821461018057600181141561019c565b60008473ffffffffffffffffffffffffffffffffffffffff163b145b156101de57836040517f5274afe70000000000000000000000000000000000000000000000000000000081526004016101d59190610409565b60405180910390fd5b50505050565b600080fd5b600073ffffffffffffffffffffffffffffffffffffffff82169050919050565b6000610214826101e9565b9050919050565b61022481610209565b811461022f57600080fd5b50565b6000813590506102418161021b565b92915050565b600061025282610209565b9050919050565b61026281610247565b811461026d57600080fd5b50565b60008135905061027f81610259565b92915050565b6000819050919050565b61029881610285565b81146102a357600080fd5b50565b6000813590506102b58161028f565b92915050565b6000806000606084860312156102d4576102d36101e4565b5b60006102e286828701610232565b93505060206102f386828701610270565b9250506040610304868287016102a6565b9150509250925092565b61031781610285565b82525050565b61032681610209565b82525050565b6000819050919050565b6000819050919050565b600061035b6103566103518461032c565b610336565b610285565b9050919050565b61036b81610340565b82525050565b600060c082019050610386600083018961030e565b610393602083018861031d565b6103a0604083018761031d565b6103ad606083018661031d565b6103ba608083018561030e565b6103c760a0830184610362565b979650505050505050565b60006060820190506103e7600083018661031d565b6103f4602083018561031d565b610401604083018461030e565b949350505050565b600060208201905061041e600083018461031d565b9291505056fea26469706673582212207b8e219966ca2692efcd3b7c8e491e95f3ef25e38756c74590365a0f839dc0e764736f6c634300081c0033",
  "linkReferences": {},
  "deployedLinkReferences": {}
}