{
  "_format": "hh-sol-artifact-1",
  "contractName": "TokenLink",
  "sourceName": "contracts/TokenLink.sol",
  "abi": [
    {
      "inputs": [
        {
          "internalType": "address",
          "name": "initialOwner",
          "type": "address"
        },
        {
          "internalType": "contract FeeMaster",
          "name": "feeMaster",
          "type": "address"
        }
      ],
      "stateMutability": "nonpayable",
      "type": "constructor"
    },
    {
      "inputs": [],
      "name": "AllowanceRequire",
      "type": "error"
    },
    {
      "inputs": [],
      "name": "AmountIncorrect",
      "type": "error"
    },
    {
      "inputs": [],
      "name": "FeeOutOfAmount",
      "type": "error"
    },
    {
      "inputs": [],
      "name": "FeeOutOfBalance",
      "type": "error"
    },
    {
      "inputs": [],
      "name": "HashCollision",
      "type": "error"
    },
    {
      "inputs": [],
      "name": "IncorrectReceiveAddress",
      "type": "error"
    },
    {
      "inputs": [],
      "name": "InvalidFeeMasterAddress",
      "type": "error"
    },
    {
      "inputs": [],
      "name": "OtpIncorrect",
      "type": "error"
    },
    {
      "inputs": [],
      "name": "OutOfBalance",
      "type": "error"
    },
    {
      "inputs": [
        {
          "internalType": "address",
          "name": "owner",
          "type": "address"
        }
      ],
      "name": "OwnableInvalidOwner",
      "type": "error"
    },
    {
      "inputs": [
        {
          "internalType": "address",
          "name": "account",
          "type": "address"
        }
      ],
      "name": "OwnableUnauthorizedAccount",
      "type": "error"
    },
    {
      "inputs": [],
      "name": "ReentrancyGuardReentrantCall",
      "type": "error"
    },
    {
      "inputs": [
        {
          "internalType": "address",
          "name": "token",
          "type": "address"
        }
      ],
      "name": "SafeERC20FailedOperation",
      "type": "error"
    },
    {
      "anonymous": false,
      "inputs": [
        {
          "indexed": false,
          "internalType": "uint256",
          "name": "time",
          "type": "uint256"
        },
        {
          "indexed": false,
          "internalType": "address",
          "name": "from",
          "type": "address"
        },
        {
          "indexed": false,
          "internalType": "address",
          "name": "to",
          "type": "address"
        },
        {
          "indexed": false,
          "internalType": "address",
          "name": "erc20Address",
          "type": "address"
        },
        {
          "indexed": false,
          "internalType": "uint256",
          "name": "amount",
          "type": "uint256"
        }
      ],
      "name": "FeeCollected",
      "type": "event"
    },
    {
      "anonymous": false,
      "inputs": [
        {
          "indexed": false,
          "internalType": "uint256",
          "name": "time",
          "type": "uint256"
        },
        {
          "indexed": false,
          "internalType": "address",
          "name": "from",
          "type": "address"
        },
        {
          "indexed": false,
          "internalType": "address",
          "name": "to",
          "type": "address"
        },
        {
          "indexed": false,
          "internalType": "address",
          "name": "erc20",
          "type": "address"
        },
        {
          "indexed": false,
          "internalType": "uint256",
          "name": "amount",
          "type": "uint256"
        },
        {
          "indexed": false,
          "internalType": "uint256",
          "name": "fee",
          "type": "uint256"
        }
      ],
      "name": "LinkDeposit",
      "type": "event"
    },
    {
      "anonymous": false,
      "inputs": [
        {
          "indexed": false,
          "internalType": "uint256",
          "name": "time",
          "type": "uint256"
        },
        {
          "indexed": false,
          "internalType": "address",
          "name": "from",
          "type": "address"
        },
        {
          "indexed": false,
          "internalType": "address",
          "name": "to",
          "type": "address"
        },
        {
          "indexed": false,
          "internalType": "address",
          "name": "erc20",
          "type": "address"
        },
        {
          "indexed": false,
          "internalType": "uint256",
          "name": "amount",
          "type": "uint256"
        }
      ],
      "name": "LinkRevoke",
      "type": "event"
    },
    {
      "anonymous": false,
      "inputs": [
        {
          "indexed": false,
          "internalType": "uint256",
          "name": "time",
          "type": "uint256"
        },
        {
          "indexed": false,
          "internalType": "address",
          "name": "from",
          "type": "address"
        },
        {
          "indexed": false,
          "internalType": "address",
          "name": "to",
          "type": "address"
        },
        {
          "indexed": false,
          "internalType": "address",
          "name": "erc20",
          "type": "address"
        },
        {
          "indexed": false,
          "internalType": "uint256",
          "name": "amount",
          "type": "uint256"
        }
      ],
      "name": "LinkWithdraw",
      "type": "event"
    },
    {
      "anonymous": false,
      "inputs": [
        {
          "indexed": true,
          "internalType": "address",
          "name": "previousOwner",
          "type": "address"
        },
        {
          "indexed": true,
          "internalType": "address",
          "name": "newOwner",
          "type": "address"
        }
      ],
      "name": "OwnershipTransferred",
      "type": "event"
    },
    {
      "anonymous": false,
      "inputs": [
        {
          "indexed": false,
          "internalType": "uint256",
          "name": "time",
          "type": "uint256"
        },
        {
          "indexed": false,
          "internalType": "address",
          "name": "from",
          "type": "address"
        },
        {
          "indexed": false,
          "internalType": "address",
          "name": "to",
          "type": "address"
        },
        {
          "indexed": false,
          "internalType": "address",
          "name": "erc20Address",
          "type": "address"
        },
        {
          "indexed": false,
          "internalType": "uint256",
          "name": "amount",
          "type": "uint256"
        }
      ],
      "name": "TokenReceived",
      "type": "event"
    },
    {
      "anonymous": false,
      "inputs": [
        {
          "indexed": false,
          "internalType": "uint256",
          "name": "time",
          "type": "uint256"
        },
        {
          "indexed": false,
          "internalType": "address",
          "name": "from",
          "type": "address"
        },
        {
          "indexed": false,
          "internalType": "address",
          "name": "to",
          "type": "address"
        },
        {
          "indexed": false,
          "internalType": "address",
          "name": "erc20Address",
          "type": "address"
        },
        {
          "indexed": false,
          "internalType": "uint256",
          "name": "amount",
          "type": "uint256"
        }
      ],
      "name": "TokenTransfer",
      "type": "event"
    },
    {
      "inputs": [
        {
          "internalType": "contract IERC20",
          "name": "erc20",
          "type": "address"
        },
        {
          "internalType": "uint256",
          "name": "amount",
          "type": "uint256"
        },
        {
          "internalType": "bytes32",
          "name": "otpHash",
          "type": "bytes32"
        }
      ],
      "name": "deposit",
      "outputs": [],
      "stateMutability": "nonpayable",
      "type": "function"
    },
    {
      "inputs": [
        {
          "internalType": "contract IERC20",
          "name": "erc20",
          "type": "address"
        },
        {
          "internalType": "uint256",
          "name": "amount",
          "type": "uint256"
        }
      ],
      "name": "feeCalculate",
      "outputs": [
        {
          "internalType": "uint256",
          "name": "",
          "type": "uint256"
        },
        {
          "internalType": "address",
          "name": "",
          "type": "address"
        }
      ],
      "stateMutability": "view",
      "type": "function"
    },
    {
      "inputs": [],
      "name": "owner",
      "outputs": [
        {
          "internalType": "address",
          "name": "",
          "type": "address"
        }
      ],
      "stateMutability": "view",
      "type": "function"
    },
    {
      "inputs": [],
      "name": "renounceOwnership",
      "outputs": [],
      "stateMutability": "nonpayable",
      "type": "function"
    },
    {
      "inputs": [
        {
          "internalType": "address",
          "name": "owner",
          "type": "address"
        },
        {
          "internalType": "string",
          "name": "otp",
          "type": "string"
        }
      ],
      "name": "revoke",
      "outputs": [],
      "stateMutability": "nonpayable",
      "type": "function"
    },
    {
      "inputs": [
        {
          "internalType": "contract FeeMaster",
          "name": "feeMaster",
          "type": "address"
        }
      ],
      "name": "setFeeMaster",
      "outputs": [],
      "stateMutability": "nonpayable",
      "type": "function"
    },
    {
      "inputs": [
        {
          "internalType": "address",
          "name": "newOwner",
          "type": "address"
        }
      ],
      "name": "transferOwnership",
      "outputs": [],
      "stateMutability": "nonpayable",
      "type": "function"
    },
    {
      "inputs": [
        {
          "internalType": "address",
          "name": "owner",
          "type": "address"
        },
        {
          "internalType": "string",
          "name": "otp",
          "type": "string"
        }
      ],
      "name": "withdraw",
      "outputs": [],
      "stateMutability": "nonpayable",
      "type": "function"
    }
  ],
  "bytecode": "0x608060405234801561001057600080fd5b50604051611d39380380611d39833981810160405281019061003291906102e4565b8082600073ffffffffffffffffffffffffffffffffffffffff168173ffffffffffffffffffffffffffffffffffffffff16036100a65760006040517f1e4fbdf700000000000000000000000000000000000000000000000000000000815260040161009d9190610333565b60405180910390fd5b6100b5816100d560201b60201c565b506100c58161019960201b60201c565b506001600281905550505061034e565b60008060009054906101000a900473ffffffffffffffffffffffffffffffffffffffff169050816000806101000a81548173ffffffffffffffffffffffffffffffffffffffff021916908373ffffffffffffffffffffffffffffffffffffffff1602179055508173ffffffffffffffffffffffffffffffffffffffff168173ffffffffffffffffffffffffffffffffffffffff167f8be0079c531659141344cd1fd0a4f28419497f9722a3daafe3b4186f6b6457e060405160405180910390a35050565b600073ffffffffffffffffffffffffffffffffffffffff168173ffffffffffffffffffffffffffffffffffffffff16036101ff576040517fa5b5e86f00000000000000000000000000000000000000000000000000000000815260040160405180910390fd5b80600160006101000a81548173ffffffffffffffffffffffffffffffffffffffff021916908373ffffffffffffffffffffffffffffffffffffffff16021790555050565b600080fd5b600073ffffffffffffffffffffffffffffffffffffffff82169050919050565b600061027382610248565b9050919050565b61028381610268565b811461028e57600080fd5b50565b6000815190506102a08161027a565b92915050565b60006102b182610268565b9050919050565b6102c1816102a6565b81146102cc57600080fd5b50565b6000815190506102de816102b8565b92915050565b600080604083850312156102fb576102fa610243565b5b600061030985828601610291565b925050602061031a858286016102cf565b9150509250929050565b61032d81610268565b82525050565b60006020820190506103486000830184610324565b92915050565b6119dc8061035d6000396000f3fe608060405234801561001057600080fd5b50600436106100885760003560e01c80638da5cb5b1161005b5780638da5cb5b14610100578063afd0224b1461011e578063d610cd531461013a578063f2fde38b1461015657610088565b806326b3293f1461008d57806350299458146100a95780636e6b1101146100da578063715018a6146100f6575b600080fd5b6100a760048036038101906100a29190611411565b610172565b005b6100c360048036038101906100be9190611464565b610414565b6040516100d19291906114c2565b60405180910390f35b6100f460048036038101906100ef919061157c565b6104bf565b005b6100fe6106c5565b005b6101086106d9565b60405161011591906115dc565b60405180910390f35b6101386004803603810190610133919061157c565b610702565b005b610154600480360381019061014f9190611635565b610910565b005b610170600480360381019061016b9190611662565b610924565b005b8282600081036101ae576040517fe38820c800000000000000000000000000000000000000000000000000000000815260040160405180910390fd5b6101b882826109aa565b6101c433308484610a69565b600073ffffffffffffffffffffffffffffffffffffffff16600360003373ffffffffffffffffffffffffffffffffffffffff1673ffffffffffffffffffffffffffffffffffffffff168152602001908152602001600020600085815260200190815260200160002060000160009054906101000a900473ffffffffffffffffffffffffffffffffffffffff1673ffffffffffffffffffffffffffffffffffffffff161461029d576040517f0bc285ab00000000000000000000000000000000000000000000000000000000815260040160405180910390fd5b60006102a98686610c06565b509050600081866102ba91906116be565b905060405180604001604052808873ffffffffffffffffffffffffffffffffffffffff16815260200182815250600360003373ffffffffffffffffffffffffffffffffffffffff1673ffffffffffffffffffffffffffffffffffffffff168152602001908152602001600020600087815260200190815260200160002060008201518160000160006101000a81548173ffffffffffffffffffffffffffffffffffffffff021916908373ffffffffffffffffffffffffffffffffffffffff160217905550602082015181600101559050507fc237821e5a562f9f3e7c9b8df60607b291231d946eff8e36e19258bc41e219644233308a85876040516103c4969594939291906116f2565b60405180910390a150507f7d59d801b6dea19243f9e50617052a82aa5a0bfac24c48a7ce8e74a548f2c6cb4233308585604051610405959493929190611753565b60405180910390a15050505050565b600080600160009054906101000a900473ffffffffffffffffffffffffffffffffffffffff1673ffffffffffffffffffffffffffffffffffffffff16635029945885856040518363ffffffff1660e01b8152600401610474929190611805565b6040805180830381865afa158015610490573d6000803e3d6000fd5b505050506040513d601f19601f820116820180604052508101906104b49190611858565b915091509250929050565b6104c7610da3565b600082826040516020016104dc9291906118d7565b6040516020818303038152906040528051906020012090506000600360008673ffffffffffffffffffffffffffffffffffffffff1673ffffffffffffffffffffffffffffffffffffffff168152602001908152602001600020905060008160008481526020019081526020016000209050600073ffffffffffffffffffffffffffffffffffffffff168160000160009054906101000a900473ffffffffffffffffffffffffffffffffffffffff1673ffffffffffffffffffffffffffffffffffffffff16036105d7576040517f8fca829d00000000000000000000000000000000000000000000000000000000815260040160405180910390fd5b61060a338260000160009054906101000a900473ffffffffffffffffffffffffffffffffffffffff168360010154610de7565b816000848152602001908152602001600020600080820160006101000a81549073ffffffffffffffffffffffffffffffffffffffff0219169055600182016000905550507fcda6be03cedeb1368ab0e17fd94812ce3e58d8f03fd7265b44927f737648151c4230338460000160009054906101000a900473ffffffffffffffffffffffffffffffffffffffff1685600101546040516106ad959493929190611753565b60405180910390a15050506106c0610f81565b505050565b6106cd610f8b565b6106d76000611012565b565b60008060009054906101000a900473ffffffffffffffffffffffffffffffffffffffff16905090565b61070a610f8b565b610712610da3565b600082826040516020016107279291906118d7565b6040516020818303038152906040528051906020012090506000600360008673ffffffffffffffffffffffffffffffffffffffff1673ffffffffffffffffffffffffffffffffffffffff168152602001908152602001600020905060008160008481526020019081526020016000209050600073ffffffffffffffffffffffffffffffffffffffff168160000160009054906101000a900473ffffffffffffffffffffffffffffffffffffffff1673ffffffffffffffffffffffffffffffffffffffff1603610822576040517f8fca829d00000000000000000000000000000000000000000000000000000000815260040160405180910390fd5b610855868260000160009054906101000a900473ffffffffffffffffffffffffffffffffffffffff168360010154610de7565b816000848152602001908152602001600020600080820160006101000a81549073ffffffffffffffffffffffffffffffffffffffff0219169055600182016000905550507fcda6be03cedeb1368ab0e17fd94812ce3e58d8f03fd7265b44927f737648151c4230888460000160009054906101000a900473ffffffffffffffffffffffffffffffffffffffff1685600101546040516108f8959493929190611753565b60405180910390a150505061090b610f81565b505050565b610918610f8b565b610921816110d6565b50565b61092c610f8b565b600073ffffffffffffffffffffffffffffffffffffffff168173ffffffffffffffffffffffffffffffffffffffff160361099e5760006040517f1e4fbdf700000000000000000000000000000000000000000000000000000000815260040161099591906115dc565b60405180910390fd5b6109a781611012565b50565b60008273ffffffffffffffffffffffffffffffffffffffff1663dd62ed3e33306040518363ffffffff1660e01b81526004016109e79291906118f0565b602060405180830381865afa158015610a04573d6000803e3d6000fd5b505050506040513d601f19601f82011682018060405250810190610a289190611919565b905081811015610a64576040517ffcc5256e00000000000000000000000000000000000000000000000000000000815260040160405180910390fd5b505050565b83838383808273ffffffffffffffffffffffffffffffffffffffff166370a08231866040518263ffffffff1660e01b8152600401610aa791906115dc565b602060405180830381865afa158015610ac4573d6000803e3d6000fd5b505050506040513d601f19601f82011682018060405250810190610ae89190611919565b1015610b20576040517fe48da08800000000000000000000000000000000000000000000000000000000815260040160405180910390fd5b600073ffffffffffffffffffffffffffffffffffffffff168373ffffffffffffffffffffffffffffffffffffffff1603610b86576040517fd6cd477300000000000000000000000000000000000000000000000000000000815260040160405180910390fd5b6000851115610bbd57610bbc8888878973ffffffffffffffffffffffffffffffffffffffff16611180909392919063ffffffff16565b5b7f94805c331332e141198757f944dacafe5617bc22662bed67d4a252417312b7924285858585604051610bf4959493929190611753565b60405180910390a15050505050505050565b600080308484600080610c198484610414565b91509150818473ffffffffffffffffffffffffffffffffffffffff166370a08231876040518263ffffffff1660e01b8152600401610c5791906115dc565b602060405180830381865afa158015610c74573d6000803e3d6000fd5b505050506040513d601f19601f82011682018060405250810190610c989190611919565b1015610cd0576040517f8903260400000000000000000000000000000000000000000000000000000000815260040160405180910390fd5b82821115610d0a576040517f459c48ea00000000000000000000000000000000000000000000000000000000815260040160405180910390fd5b600080610d178b8b610414565b915091506000821115610d5057610d4f81838d73ffffffffffffffffffffffffffffffffffffffff166112029092919063ffffffff16565b5b81819850985050507fe780c2f673701c03bd52ecfb598243a339798c9e3ec10a3df8c2eceee57001184286838786604051610d8f959493929190611753565b60405180910390a150505050509250929050565b6002805403610dde576040517f3ee5aeb500000000000000000000000000000000000000000000000000000000815260040160405180910390fd5b60028081905550565b30838383808273ffffffffffffffffffffffffffffffffffffffff166370a08231866040518263ffffffff1660e01b8152600401610e2591906115dc565b602060405180830381865afa158015610e42573d6000803e3d6000fd5b505050506040513d601f19601f82011682018060405250810190610e669190611919565b1015610e9e576040517fe48da08800000000000000000000000000000000000000000000000000000000815260040160405180910390fd5b600073ffffffffffffffffffffffffffffffffffffffff168373ffffffffffffffffffffffffffffffffffffffff1603610f04576040517fd6cd477300000000000000000000000000000000000000000000000000000000815260040160405180910390fd5b6000851115610f3957610f3887868873ffffffffffffffffffffffffffffffffffffffff166112029092919063ffffffff16565b5b7f94805c331332e141198757f944dacafe5617bc22662bed67d4a252417312b7924285858585604051610f70959493929190611753565b60405180910390a150505050505050565b6001600281905550565b610f93611281565b73ffffffffffffffffffffffffffffffffffffffff16610fb16106d9565b73ffffffffffffffffffffffffffffffffffffffff161461101057610fd4611281565b6040517f118cdaa700000000000000000000000000000000000000000000000000000000815260040161100791906115dc565b60405180910390fd5b565b60008060009054906101000a900473ffffffffffffffffffffffffffffffffffffffff169050816000806101000a81548173ffffffffffffffffffffffffffffffffffffffff021916908373ffffffffffffffffffffffffffffffffffffffff1602179055508173ffffffffffffffffffffffffffffffffffffffff168173ffffffffffffffffffffffffffffffffffffffff167f8be0079c531659141344cd1fd0a4f28419497f9722a3daafe3b4186f6b6457e060405160405180910390a35050565b600073ffffffffffffffffffffffffffffffffffffffff168173ffffffffffffffffffffffffffffffffffffffff160361113c576040517fa5b5e86f00000000000000000000000000000000000000000000000000000000815260040160405180910390fd5b80600160006101000a81548173ffffffffffffffffffffffffffffffffffffffff021916908373ffffffffffffffffffffffffffffffffffffffff16021790555050565b6111fc848573ffffffffffffffffffffffffffffffffffffffff166323b872dd8686866040516024016111b593929190611946565b604051602081830303815290604052915060e01b6020820180517bffffffffffffffffffffffffffffffffffffffffffffffffffffffff8381831617835250505050611289565b50505050565b61127c838473ffffffffffffffffffffffffffffffffffffffff1663a9059cbb858560405160240161123592919061197d565b604051602081830303815290604052915060e01b6020820180517bffffffffffffffffffffffffffffffffffffffffffffffffffffffff8381831617835250505050611289565b505050565b600033905090565b600080602060008451602086016000885af1806112ac576040513d6000823e3d81fd5b3d9250600051915050600082146112c75760018114156112e3565b60008473ffffffffffffffffffffffffffffffffffffffff163b145b1561132557836040517f5274afe700000000000000000000000000000000000000000000000000000000815260040161131c91906115dc565b60405180910390fd5b50505050565b600080fd5b600080fd5b600073ffffffffffffffffffffffffffffffffffffffff82169050919050565b600061136082611335565b9050919050565b600061137282611355565b9050919050565b61138281611367565b811461138d57600080fd5b50565b60008135905061139f81611379565b92915050565b6000819050919050565b6113b8816113a5565b81146113c357600080fd5b50565b6000813590506113d5816113af565b92915050565b6000819050919050565b6113ee816113db565b81146113f957600080fd5b50565b60008135905061140b816113e5565b92915050565b60008060006060848603121561142a5761142961132b565b5b600061143886828701611390565b9350506020611449868287016113c6565b925050604061145a868287016113fc565b9150509250925092565b6000806040838503121561147b5761147a61132b565b5b600061148985828601611390565b925050602061149a858286016113c6565b9150509250929050565b6114ad816113a5565b82525050565b6114bc81611355565b82525050565b60006040820190506114d760008301856114a4565b6114e460208301846114b3565b9392505050565b6114f481611355565b81146114ff57600080fd5b50565b600081359050611511816114eb565b92915050565b600080fd5b600080fd5b600080fd5b60008083601f84011261153c5761153b611517565b5b8235905067ffffffffffffffff8111156115595761155861151c565b5b60208301915083600182028301111561157557611574611521565b5b9250929050565b6000806000604084860312156115955761159461132b565b5b60006115a386828701611502565b935050602084013567ffffffffffffffff8111156115c4576115c3611330565b5b6115d086828701611526565b92509250509250925092565b60006020820190506115f160008301846114b3565b92915050565b600061160282611355565b9050919050565b611612816115f7565b811461161d57600080fd5b50565b60008135905061162f81611609565b92915050565b60006020828403121561164b5761164a61132b565b5b600061165984828501611620565b91505092915050565b6000602082840312156116785761167761132b565b5b600061168684828501611502565b91505092915050565b7f4e487b7100000000000000000000000000000000000000000000000000000000600052601160045260246000fd5b60006116c9826113a5565b91506116d4836113a5565b92508282039050818111156116ec576116eb61168f565b5b92915050565b600060c08201905061170760008301896114a4565b61171460208301886114b3565b61172160408301876114b3565b61172e60608301866114b3565b61173b60808301856114a4565b61174860a08301846114a4565b979650505050505050565b600060a08201905061176860008301886114a4565b61177560208301876114b3565b61178260408301866114b3565b61178f60608301856114b3565b61179c60808301846114a4565b9695505050505050565b6000819050919050565b60006117cb6117c66117c184611335565b6117a6565b611335565b9050919050565b60006117dd826117b0565b9050919050565b60006117ef826117d2565b9050919050565b6117ff816117e4565b82525050565b600060408201905061181a60008301856117f6565b61182760208301846114a4565b9392505050565b60008151905061183d816113af565b92915050565b600081519050611852816114eb565b92915050565b6000806040838503121561186f5761186e61132b565b5b600061187d8582860161182e565b925050602061188e85828601611843565b9150509250929050565b600081905092915050565b82818337600083830152505050565b60006118be8385611898565b93506118cb8385846118a3565b82840190509392505050565b60006118e48284866118b2565b91508190509392505050565b600060408201905061190560008301856114b3565b61191260208301846114b3565b9392505050565b60006020828403121561192f5761192e61132b565b5b600061193d8482850161182e565b91505092915050565b600060608201905061195b60008301866114b3565b61196860208301856114b3565b61197560408301846114a4565b949350505050565b600060408201905061199260008301856114b3565b61199f60208301846114a4565b939250505056fea26469706673582212207332fada3b1e501027b4e1db0ce77f58084a2efe54c3d6c70b04d2c62a7c145064736f6c634300081c0033",
  "linkReferences": {},
  "deployedLinkReferences": {}
}